:100000000C9446000C9465000C9465000C946500FB
:100010000C9465000C9465000C9465000C946500CC
:100020000C9465000C9465000C9465000C946500BC
:100030000C9465000C9465000C9465000C946500AC
:100040000C9465000C9465000C9465000C9465009C
:100050000C9465000C9465000C9465000C9465008C
:100060000C9465000C9465000C9465000C9465007C
:100070000C9465000C9465000C9465000C9465006C
:100080000C9465000C9465000C94650011241FBE4F
:10009000CFEFD0E4DEBFCDBF11E0A0E0B1E0E2E3FE
:1000A000F2E000E00BBF02C007900D92AE30B10746
:1000B000D9F711E0AEE0B1E001C01D92A031B10767
:1000C000E1F70E940A010C9417010C940000CF93F1
:1000D000C82F8A3019F48DE00E9467009091C0000B
:1000E00095FFFCCFC093C60080E090E0CF910895CB
:1000F00080910E0190910F018130910591F040F0B7
:100100008230910509F444C0039709F462C0089550
:1001100081E090E090930F0180930E0187E088B911
:10012000089580B18F70813071F482E090E09093F7
:100130000F0180930E0188B1893008F06AC088B140
:100140008F5F88B9089580B18F70823071F483E039
:1001500090E090930F0180930E0188B1882309F4F9
:1001600058C088B1815088B9089580B18F708330AC
:1001700041F481E090E090930F0180930E0118B854
:10018000089581E090E090930F0180930E0108950F
:1001900080B18F70813039F482E090E090930F014C
:1001A00080930E01089580B18F7039F481E090E062
:1001B00090930F0180930E01089580B18F7083306A
:1001C00041F581E090E090930F0180930E0118B803
:1001D000089580B18F70823039F483E090E090937D
:1001E0000F0180930E01089580B18F7039F481E082
:1001F00090E090930F0180930E01089580B18F706D
:10020000833039F481E090E090930F0180930E01E8
:1002100018B8089511B88FEF82B987B987E088B907
:1002200010920F0110920E010E947800FDCFF894F9
:02023000FFCFFE
:0E023200000000020000000067000000000055
:00000001FF
