:100000000C9446000C9465000C9465000C946500FB
:100010000C9465000C9465000C9465000C946500CC
:100020000C9465000C9465000C9465000C946500BC
:100030000C9465000C9465000C9465000C946500AC
:100040000C9465000C9465000C9465000C9465009C
:100050000C9465000C9465000C9465000C9465008C
:100060000C9465000C9465000C9465000C9465007C
:100070000C9465000C9465000C9465000C9465006C
:100080000C9465000C9465000C94650011241FBE4F
:10009000CFEFD0E4DEBFCDBF11E0A0E0B1E0E0E201
:1000A000F2E000E00BBF02C007900D92AE30B10746
:1000B000D9F711E0AEE0B1E001C01D92A431B10763
:1000C000E1F70E94F9000C940E010C940000CF930C
:1000D000C82F8A3019F48DE00E9467009091C0000B
:1000E00095FFFCCFC093C60080E090E0CF910895CB
:1000F00080910F01909110018130910579F020F0ED
:10010000029709F440C06DC010920E0181E090E0AA
:100110009093100180930F0115B8089580B18F70EE
:1001200090910E01E92FF0E0EF5EFE4F2081281341
:1001300012C0933049F485B18F7091E009F090E0DE
:1001400095B910920E01089582E090E0909310010D
:1001500080930F01089580B1811107C081E090E084
:100160009093100180930F01089510920E0181E089
:1001700090E09093100180930F0180B1807F8038D0
:10018000B9F515B8089580B18F7061F481E090E001
:100190009093100180930F0180910E018F5F8093E7
:1001A0000E01089580B18F70E0910E01F0E0EF5ED6
:1001B000FE4F9081891307C082E090E09093100178
:1001C00080930F01089581E090E090931001809357
:1001D0000F0110920E0180B1807F803849F415B86C
:1001E000089581E090E09093100180930F0115B87D
:1001F000089511B88FEF82B984B915B81092100123
:1002000010920F01E1E1F1E084E0808381E08183DD
:1002100092E0928383830E947800FDCFF894FFCF11
:0E022000000000020000000067000000000067
:00000001FF
