:100000000C9446000C9465000C9465000C946500FB
:100010000C9465000C9465000C9465000C946500CC
:100020000C9465000C9465000C9465000C946500BC
:100030000C9465000C9465000C9465000C946500AC
:100040000C9465000C9465000C9465000C9465009C
:100050000C9465000C9465000C9465000C9465008C
:100060000C9465000C9465000C9465000C9465007C
:100070000C9465000C9465000C9465000C9465006C
:100080000C9465000C9465000C94650011241FBE4F
:10009000CFEFD0E4DEBFCDBF11E0A0E0B1E0EAE0F9
:1000A000F2E000E00BBF02C007900D92AE30B10746
:1000B000D9F711E0AEE0B1E001C01D92A031B10767
:1000C000E1F70E94F7000C9403010C940000CF9319
:1000D000C82F8A3019F48DE00E9467009091C0000B
:1000E00095FFFCCFC093C60080E090E0CF910895CB
:1000F00080910E0190910F018130910581F038F0CF
:100100008230910521F1039709F442C068C081E073
:1001100090E090930F0180930E0115B8089580B17F
:100120008F70843039F482E090E090930F018093D7
:100130000E01089581E090E090930F0180930E01ED
:1001400080B1807F803809F051C015B8089580B122
:100150008F7039F483E090E090930F0180930E014B
:10016000089580B18F70843039F482E090E09093EC
:100170000F0180930E01089581E090E090930F01AC
:1001800080930E0180B1807F803881F515B8089585
:1001900080B18F70823069F481E090E090930F011C
:1001A00080930E0185B18F7091E009F090E095B9D0
:1001B000089580B18F7039F483E090E090930F013F
:1001C00080930E01089581E090E090930F01809359
:1001D0000E0180B1807F803849F415B8089581E020
:1001E00090E090930F0180930E0115B8089511B817
:1001F0008FEF82B984B915B810920F0110920E01D9
:0A0200000E947800FDCFF894FFCFB4
:0E020A0000000002000000006700000000007D
:00000001FF
